{
  "_format": "hh-sol-artifact-1",
  "contractName": "Assets",
  "sourceName": "contracts/Assets.sol",
  "abi": [
    {
      "inputs": [],
      "stateMutability": "nonpayable",
      "type": "constructor"
    },
    {
      "inputs": [
        {
          "internalType": "address",
          "name": "sender",
          "type": "address"
        },
        {
          "internalType": "uint256",
          "name": "tokenId",
          "type": "uint256"
        },
        {
          "internalType": "address",
          "name": "owner",
          "type": "address"
        }
      ],
      "name": "ERC721IncorrectOwner",
      "type": "error"
    },
    {
      "inputs": [
        {
          "internalType": "address",
          "name": "operator",
          "type": "address"
        },
        {
          "internalType": "uint256",
          "name": "tokenId",
          "type": "uint256"
        }
      ],
      "name": "ERC721InsufficientApproval",
      "type": "error"
    },
    {
      "inputs": [
        {
          "internalType": "address",
          "name": "approver",
          "type": "address"
        }
      ],
      "name": "ERC721InvalidApprover",
      "type": "error"
    },
    {
      "inputs": [
        {
          "internalType": "address",
          "name": "operator",
          "type": "address"
        }
      ],
      "name": "ERC721InvalidOperator",
      "type": "error"
    },
    {
      "inputs": [
        {
          "internalType": "address",
          "name": "owner",
          "type": "address"
        }
      ],
      "name": "ERC721InvalidOwner",
      "type": "error"
    },
    {
      "inputs": [
        {
          "internalType": "address",
          "name": "receiver",
          "type": "address"
        }
      ],
      "name": "ERC721InvalidReceiver",
      "type": "error"
    },
    {
      "inputs": [
        {
          "internalType": "address",
          "name": "sender",
          "type": "address"
        }
      ],
      "name": "ERC721InvalidSender",
      "type": "error"
    },
    {
      "inputs": [
        {
          "internalType": "uint256",
          "name": "tokenId",
          "type": "uint256"
        }
      ],
      "name": "ERC721NonexistentToken",
      "type": "error"
    },
    {
      "inputs": [
        {
          "internalType": "address",
          "name": "owner",
          "type": "address"
        }
      ],
      "name": "OwnableInvalidOwner",
      "type": "error"
    },
    {
      "inputs": [
        {
          "internalType": "address",
          "name": "account",
          "type": "address"
        }
      ],
      "name": "OwnableUnauthorizedAccount",
      "type": "error"
    },
    {
      "anonymous": false,
      "inputs": [
        {
          "indexed": true,
          "internalType": "address",
          "name": "owner",
          "type": "address"
        },
        {
          "indexed": true,
          "internalType": "address",
          "name": "approved",
          "type": "address"
        },
        {
          "indexed": true,
          "internalType": "uint256",
          "name": "tokenId",
          "type": "uint256"
        }
      ],
      "name": "Approval",
      "type": "event"
    },
    {
      "anonymous": false,
      "inputs": [
        {
          "indexed": true,
          "internalType": "address",
          "name": "owner",
          "type": "address"
        },
        {
          "indexed": true,
          "internalType": "address",
          "name": "operator",
          "type": "address"
        },
        {
          "indexed": false,
          "internalType": "bool",
          "name": "approved",
          "type": "bool"
        }
      ],
      "name": "ApprovalForAll",
      "type": "event"
    },
    {
      "anonymous": false,
      "inputs": [
        {
          "indexed": false,
          "internalType": "uint256",
          "name": "_fromTokenId",
          "type": "uint256"
        },
        {
          "indexed": false,
          "internalType": "uint256",
          "name": "_toTokenId",
          "type": "uint256"
        }
      ],
      "name": "BatchMetadataUpdate",
      "type": "event"
    },
    {
      "anonymous": false,
      "inputs": [
        {
          "indexed": false,
          "internalType": "uint256",
          "name": "_tokenId",
          "type": "uint256"
        }
      ],
      "name": "MetadataUpdate",
      "type": "event"
    },
    {
      "anonymous": false,
      "inputs": [
        {
          "indexed": true,
          "internalType": "address",
          "name": "previousOwner",
          "type": "address"
        },
        {
          "indexed": true,
          "internalType": "address",
          "name": "newOwner",
          "type": "address"
        }
      ],
      "name": "OwnershipTransferred",
      "type": "event"
    },
    {
      "anonymous": false,
      "inputs": [
        {
          "indexed": true,
          "internalType": "address",
          "name": "from",
          "type": "address"
        },
        {
          "indexed": true,
          "internalType": "address",
          "name": "to",
          "type": "address"
        },
        {
          "indexed": true,
          "internalType": "uint256",
          "name": "tokenId",
          "type": "uint256"
        }
      ],
      "name": "Transfer",
      "type": "event"
    },
    {
      "inputs": [],
      "name": "_contractOwner",
      "outputs": [
        {
          "internalType": "address",
          "name": "",
          "type": "address"
        }
      ],
      "stateMutability": "view",
      "type": "function"
    },
    {
      "inputs": [],
      "name": "_nextTokenId",
      "outputs": [
        {
          "internalType": "uint256",
          "name": "",
          "type": "uint256"
        }
      ],
      "stateMutability": "view",
      "type": "function"
    },
    {
      "inputs": [
        {
          "internalType": "address",
          "name": "to",
          "type": "address"
        },
        {
          "internalType": "uint256",
          "name": "tokenId",
          "type": "uint256"
        }
      ],
      "name": "approve",
      "outputs": [],
      "stateMutability": "nonpayable",
      "type": "function"
    },
    {
      "inputs": [
        {
          "internalType": "address",
          "name": "owner",
          "type": "address"
        }
      ],
      "name": "balance",
      "outputs": [
        {
          "internalType": "uint256",
          "name": "",
          "type": "uint256"
        }
      ],
      "stateMutability": "view",
      "type": "function"
    },
    {
      "inputs": [
        {
          "internalType": "address",
          "name": "owner",
          "type": "address"
        }
      ],
      "name": "balanceOf",
      "outputs": [
        {
          "internalType": "uint256",
          "name": "",
          "type": "uint256"
        }
      ],
      "stateMutability": "view",
      "type": "function"
    },
    {
      "inputs": [
        {
          "internalType": "uint256",
          "name": "tokenId",
          "type": "uint256"
        }
      ],
      "name": "getApproved",
      "outputs": [
        {
          "internalType": "address",
          "name": "",
          "type": "address"
        }
      ],
      "stateMutability": "view",
      "type": "function"
    },
    {
      "inputs": [
        {
          "internalType": "address",
          "name": "owner",
          "type": "address"
        },
        {
          "internalType": "address",
          "name": "operator",
          "type": "address"
        }
      ],
      "name": "isApprovedForAll",
      "outputs": [
        {
          "internalType": "bool",
          "name": "",
          "type": "bool"
        }
      ],
      "stateMutability": "view",
      "type": "function"
    },
    {
      "inputs": [
        {
          "internalType": "string",
          "name": "tokenURI",
          "type": "string"
        }
      ],
      "name": "mint",
      "outputs": [
        {
          "internalType": "uint256",
          "name": "",
          "type": "uint256"
        }
      ],
      "stateMutability": "nonpayable",
      "type": "function"
    },
    {
      "inputs": [],
      "name": "name",
      "outputs": [
        {
          "internalType": "string",
          "name": "",
          "type": "string"
        }
      ],
      "stateMutability": "view",
      "type": "function"
    },
    {
      "inputs": [
        {
          "internalType": "uint256",
          "name": "tokenId",
          "type": "uint256"
        }
      ],
      "name": "nftBurn",
      "outputs": [],
      "stateMutability": "nonpayable",
      "type": "function"
    },
    {
      "inputs": [
        {
          "internalType": "uint256",
          "name": "tokenId",
          "type": "uint256"
        }
      ],
      "name": "nftOwner",
      "outputs": [
        {
          "internalType": "address",
          "name": "",
          "type": "address"
        }
      ],
      "stateMutability": "view",
      "type": "function"
    },
    {
      "inputs": [],
      "name": "nftSymbol",
      "outputs": [
        {
          "internalType": "string",
          "name": "",
          "type": "string"
        }
      ],
      "stateMutability": "view",
      "type": "function"
    },
    {
      "inputs": [
        {
          "internalType": "uint256",
          "name": "tokenId",
          "type": "uint256"
        }
      ],
      "name": "nftTokenURI",
      "outputs": [
        {
          "internalType": "string",
          "name": "",
          "type": "string"
        }
      ],
      "stateMutability": "view",
      "type": "function"
    },
    {
      "inputs": [],
      "name": "owner",
      "outputs": [
        {
          "internalType": "address",
          "name": "",
          "type": "address"
        }
      ],
      "stateMutability": "view",
      "type": "function"
    },
    {
      "inputs": [
        {
          "internalType": "uint256",
          "name": "tokenId",
          "type": "uint256"
        }
      ],
      "name": "ownerOf",
      "outputs": [
        {
          "internalType": "address",
          "name": "",
          "type": "address"
        }
      ],
      "stateMutability": "view",
      "type": "function"
    },
    {
      "inputs": [],
      "name": "renounceOwnership",
      "outputs": [],
      "stateMutability": "nonpayable",
      "type": "function"
    },
    {
      "inputs": [
        {
          "internalType": "address",
          "name": "from",
          "type": "address"
        },
        {
          "internalType": "address",
          "name": "to",
          "type": "address"
        },
        {
          "internalType": "uint256",
          "name": "tokenId",
          "type": "uint256"
        }
      ],
      "name": "safeTransferFrom",
      "outputs": [],
      "stateMutability": "nonpayable",
      "type": "function"
    },
    {
      "inputs": [
        {
          "internalType": "address",
          "name": "from",
          "type": "address"
        },
        {
          "internalType": "address",
          "name": "to",
          "type": "address"
        },
        {
          "internalType": "uint256",
          "name": "tokenId",
          "type": "uint256"
        },
        {
          "internalType": "bytes",
          "name": "data",
          "type": "bytes"
        }
      ],
      "name": "safeTransferFrom",
      "outputs": [],
      "stateMutability": "nonpayable",
      "type": "function"
    },
    {
      "inputs": [
        {
          "internalType": "address",
          "name": "operator",
          "type": "address"
        },
        {
          "internalType": "bool",
          "name": "approved",
          "type": "bool"
        }
      ],
      "name": "setApprovalForAll",
      "outputs": [],
      "stateMutability": "nonpayable",
      "type": "function"
    },
    {
      "inputs": [
        {
          "internalType": "bytes4",
          "name": "interfaceId",
          "type": "bytes4"
        }
      ],
      "name": "supportsInterface",
      "outputs": [
        {
          "internalType": "bool",
          "name": "",
          "type": "bool"
        }
      ],
      "stateMutability": "view",
      "type": "function"
    },
    {
      "inputs": [],
      "name": "symbol",
      "outputs": [
        {
          "internalType": "string",
          "name": "",
          "type": "string"
        }
      ],
      "stateMutability": "view",
      "type": "function"
    },
    {
      "inputs": [
        {
          "internalType": "uint256",
          "name": "tokenId",
          "type": "uint256"
        }
      ],
      "name": "tokenURI",
      "outputs": [
        {
          "internalType": "string",
          "name": "",
          "type": "string"
        }
      ],
      "stateMutability": "view",
      "type": "function"
    },
    {
      "inputs": [
        {
          "internalType": "address",
          "name": "from",
          "type": "address"
        },
        {
          "internalType": "address",
          "name": "to",
          "type": "address"
        },
        {
          "internalType": "uint256",
          "name": "tokenId",
          "type": "uint256"
        }
      ],
      "name": "transfer",
      "outputs": [],
      "stateMutability": "nonpayable",
      "type": "function"
    },
    {
      "inputs": [
        {
          "internalType": "address",
          "name": "from",
          "type": "address"
        },
        {
          "internalType": "address",
          "name": "to",
          "type": "address"
        },
        {
          "internalType": "uint256",
          "name": "tokenId",
          "type": "uint256"
        }
      ],
      "name": "transferFrom",
      "outputs": [],
      "stateMutability": "nonpayable",
      "type": "function"
    },
    {
      "inputs": [
        {
          "internalType": "address",
          "name": "newOwner",
          "type": "address"
        }
      ],
      "name": "transferOwnership",
      "outputs": [],
      "stateMutability": "nonpayable",
      "type": "function"
    }
  ],
  "bytecode": "0x608060405234801561001057600080fd5b50336040518060400160405280600981526020017f506f7073204e46547300000000000000000000000000000000000000000000008152506040518060400160405280600481526020017f504f505300000000000000000000000000000000000000000000000000000000815250816000908161008d9190610487565b50806001908161009d9190610487565b505050600073ffffffffffffffffffffffffffffffffffffffff168173ffffffffffffffffffffffffffffffffffffffff16036101125760006040517f1e4fbdf7000000000000000000000000000000000000000000000000000000008152600401610109919061059a565b60405180910390fd5b6101218161017160201b60201c565b506103e860088190555033600960006101000a81548173ffffffffffffffffffffffffffffffffffffffff021916908373ffffffffffffffffffffffffffffffffffffffff1602179055506105b5565b6000600760009054906101000a900473ffffffffffffffffffffffffffffffffffffffff16905081600760006101000a81548173ffffffffffffffffffffffffffffffffffffffff021916908373ffffffffffffffffffffffffffffffffffffffff1602179055508173ffffffffffffffffffffffffffffffffffffffff168173ffffffffffffffffffffffffffffffffffffffff167f8be0079c531659141344cd1fd0a4f28419497f9722a3daafe3b4186f6b6457e060405160405180910390a35050565b600081519050919050565b7f4e487b7100000000000000000000000000000000000000000000000000000000600052604160045260246000fd5b7f4e487b7100000000000000000000000000000000000000000000000000000000600052602260045260246000fd5b600060028204905060018216806102b857607f821691505b6020821081036102cb576102ca610271565b5b50919050565b60008190508160005260206000209050919050565b60006020601f8301049050919050565b600082821b905092915050565b6000600883026103337fffffffffffffffffffffffffffffffffffffffffffffffffffffffffffffffff826102f6565b61033d86836102f6565b95508019841693508086168417925050509392505050565b6000819050919050565b6000819050919050565b600061038461037f61037a84610355565b61035f565b610355565b9050919050565b6000819050919050565b61039e83610369565b6103b26103aa8261038b565b848454610303565b825550505050565b600090565b6103c76103ba565b6103d2818484610395565b505050565b5b818110156103f6576103eb6000826103bf565b6001810190506103d8565b5050565b601f82111561043b5761040c816102d1565b610415846102e6565b81016020851015610424578190505b610438610430856102e6565b8301826103d7565b50505b505050565b600082821c905092915050565b600061045e60001984600802610440565b1980831691505092915050565b6000610477838361044d565b9150826002028217905092915050565b61049082610237565b67ffffffffffffffff8111156104a9576104a8610242565b5b6104b382546102a0565b6104be8282856103fa565b600060209050601f8311600181146104f157600084156104df578287015190505b6104e9858261046b565b865550610551565b601f1984166104ff866102d1565b60005b8281101561052757848901518255600182019150602085019450602081019050610502565b868310156105445784890151610540601f89168261044d565b8355505b6001600288020188555050505b505050505050565b600073ffffffffffffffffffffffffffffffffffffffff82169050919050565b600061058482610559565b9050919050565b61059481610579565b82525050565b60006020820190506105af600083018461058b565b92915050565b6128c8806105c46000396000f3fe608060405234801561001057600080fd5b50600436106101735760003560e01c806375f4fc3c116100de578063c87b56dd11610097578063e985e9c511610071578063e985e9c51461045e578063f2fde38b1461048e578063f37fc702146104aa578063fd731837146104c657610173565b8063c87b56dd146103ce578063d85d3d27146103fe578063e3d670d71461042e57610173565b806375f4fc3c1461030e5780638da5cb5b1461033e57806395d89b411461035c578063a22cb4651461037a578063b88d4fde14610396578063beabacc8146103b257610173565b80632bb3b114116101305780632bb3b1141461024c57806342842e0e1461026a5780634a60f620146102865780636352211e146102a457806370a08231146102d4578063715018a61461030457610173565b806301ffc9a71461017857806306fdde03146101a8578063081812fc146101c6578063095ea7b3146101f657806312c0f3d31461021257806323b872dd14610230575b600080fd5b610192600480360381019061018d9190611d33565b6104f6565b60405161019f9190611d7b565b60405180910390f35b6101b0610557565b6040516101bd9190611e26565b60405180910390f35b6101e060048036038101906101db9190611e7e565b6105e9565b6040516101ed9190611eec565b60405180910390f35b610210600480360381019061020b9190611f33565b610605565b005b61021a61061b565b6040516102279190611e26565b60405180910390f35b61024a60048036038101906102459190611f73565b610630565b005b610254610732565b6040516102619190611eec565b60405180910390f35b610284600480360381019061027f9190611f73565b610758565b005b61028e610778565b60405161029b9190611fd5565b60405180910390f35b6102be60048036038101906102b99190611e7e565b61077e565b6040516102cb9190611eec565b60405180910390f35b6102ee60048036038101906102e99190611ff0565b610790565b6040516102fb9190611fd5565b60405180910390f35b61030c61084a565b005b61032860048036038101906103239190611e7e565b61085e565b6040516103359190611e26565b60405180910390f35b610346610870565b6040516103539190611eec565b60405180910390f35b61036461089a565b6040516103719190611e26565b60405180910390f35b610394600480360381019061038f9190612049565b61092c565b005b6103b060048036038101906103ab91906121be565b610942565b005b6103cc60048036038101906103c79190611f73565b610967565b005b6103e860048036038101906103e39190611e7e565b610977565b6040516103f59190611e26565b60405180910390f35b610418600480360381019061041391906122e2565b610a8a565b6040516104259190611fd5565b60405180910390f35b61044860048036038101906104439190611ff0565b610ac8565b6040516104559190611fd5565b60405180910390f35b6104786004803603810190610473919061232b565b610ada565b6040516104859190611d7b565b60405180910390f35b6104a860048036038101906104a39190611ff0565b610b6e565b005b6104c460048036038101906104bf9190611e7e565b610bf4565b005b6104e060048036038101906104db9190611e7e565b610c00565b6040516104ed9190611eec565b60405180910390f35b6000634906490660e01b7bffffffffffffffffffffffffffffffffffffffffffffffffffffffff1916827bffffffffffffffffffffffffffffffffffffffffffffffffffffffff19161480610550575061054f82610c12565b5b9050919050565b6060600080546105669061239a565b80601f01602080910402602001604051908101604052809291908181526020018280546105929061239a565b80156105df5780601f106105b4576101008083540402835291602001916105df565b820191906000526020600020905b8154815290600101906020018083116105c257829003601f168201915b5050505050905090565b60006105f482610cf4565b506105fe82610d7c565b9050919050565b6106178282610612610db9565b610dc1565b5050565b6060600061062761089a565b90508091505090565b600073ffffffffffffffffffffffffffffffffffffffff168273ffffffffffffffffffffffffffffffffffffffff16036106a25760006040517f64a0ae920000000000000000000000000000000000000000000000000000000081526004016106999190611eec565b60405180910390fd5b60006106b683836106b1610db9565b610dd3565b90508373ffffffffffffffffffffffffffffffffffffffff168173ffffffffffffffffffffffffffffffffffffffff161461072c578382826040517f64283d7b000000000000000000000000000000000000000000000000000000008152600401610723939291906123cb565b60405180910390fd5b50505050565b600960009054906101000a900473ffffffffffffffffffffffffffffffffffffffff1681565b61077383838360405180602001604052806000815250610942565b505050565b60085481565b600061078982610cf4565b9050919050565b60008073ffffffffffffffffffffffffffffffffffffffff168273ffffffffffffffffffffffffffffffffffffffff16036108035760006040517f89c62b640000000000000000000000000000000000000000000000000000000081526004016107fa9190611eec565b60405180910390fd5b600360008373ffffffffffffffffffffffffffffffffffffffff1673ffffffffffffffffffffffffffffffffffffffff168152602001908152602001600020549050919050565b610852610fed565b61085c6000611074565b565b606061086982610977565b9050919050565b6000600760009054906101000a900473ffffffffffffffffffffffffffffffffffffffff16905090565b6060600180546108a99061239a565b80601f01602080910402602001604051908101604052809291908181526020018280546108d59061239a565b80156109225780601f106108f757610100808354040283529160200191610922565b820191906000526020600020905b81548152906001019060200180831161090557829003601f168201915b5050505050905090565b61093e610937610db9565b838361113a565b5050565b61094d848484610630565b610961610958610db9565b858585856112a9565b50505050565b610972838383610758565b505050565b606061098282610cf4565b5060006006600084815260200190815260200160002080546109a39061239a565b80601f01602080910402602001604051908101604052809291908181526020018280546109cf9061239a565b8015610a1c5780601f106109f157610100808354040283529160200191610a1c565b820191906000526020600020905b8154815290600101906020018083116109ff57829003601f168201915b505050505090506000610a2d61145a565b90506000815103610a42578192505050610a85565b600082511115610a77578082604051602001610a5f92919061243e565b60405160208183030381529060405292505050610a85565b610a8084611471565b925050505b919050565b600060086000815480929190610a9f90612491565b919050555060006008549050610ab533826114da565b610abf81846115d3565b80915050919050565b6000610ad382610790565b9050919050565b6000600560008473ffffffffffffffffffffffffffffffffffffffff1673ffffffffffffffffffffffffffffffffffffffff16815260200190815260200160002060008373ffffffffffffffffffffffffffffffffffffffff1673ffffffffffffffffffffffffffffffffffffffff16815260200190815260200160002060009054906101000a900460ff16905092915050565b610b76610fed565b600073ffffffffffffffffffffffffffffffffffffffff168173ffffffffffffffffffffffffffffffffffffffff1603610be85760006040517f1e4fbdf7000000000000000000000000000000000000000000000000000000008152600401610bdf9190611eec565b60405180910390fd5b610bf181611074565b50565b610bfd8161162f565b50565b6000610c0b8261077e565b9050919050565b60007f80ac58cd000000000000000000000000000000000000000000000000000000007bffffffffffffffffffffffffffffffffffffffffffffffffffffffff1916827bffffffffffffffffffffffffffffffffffffffffffffffffffffffff19161480610cdd57507f5b5e139f000000000000000000000000000000000000000000000000000000007bffffffffffffffffffffffffffffffffffffffffffffffffffffffff1916827bffffffffffffffffffffffffffffffffffffffffffffffffffffffff1916145b80610ced5750610cec826116b5565b5b9050919050565b600080610d008361171f565b9050600073ffffffffffffffffffffffffffffffffffffffff168173ffffffffffffffffffffffffffffffffffffffff1603610d7357826040517f7e273289000000000000000000000000000000000000000000000000000000008152600401610d6a9190611fd5565b60405180910390fd5b80915050919050565b60006004600083815260200190815260200160002060009054906101000a900473ffffffffffffffffffffffffffffffffffffffff169050919050565b600033905090565b610dce838383600161175c565b505050565b600080610ddf8461171f565b9050600073ffffffffffffffffffffffffffffffffffffffff168373ffffffffffffffffffffffffffffffffffffffff1614610e2157610e20818486611921565b5b600073ffffffffffffffffffffffffffffffffffffffff168173ffffffffffffffffffffffffffffffffffffffff1614610eb257610e6360008560008061175c565b6001600360008373ffffffffffffffffffffffffffffffffffffffff1673ffffffffffffffffffffffffffffffffffffffff168152602001908152602001600020600082825403925050819055505b600073ffffffffffffffffffffffffffffffffffffffff168573ffffffffffffffffffffffffffffffffffffffff1614610f35576001600360008773ffffffffffffffffffffffffffffffffffffffff1673ffffffffffffffffffffffffffffffffffffffff168152602001908152602001600020600082825401925050819055505b846002600086815260200190815260200160002060006101000a81548173ffffffffffffffffffffffffffffffffffffffff021916908373ffffffffffffffffffffffffffffffffffffffff160217905550838573ffffffffffffffffffffffffffffffffffffffff168273ffffffffffffffffffffffffffffffffffffffff167fddf252ad1be2c89b69c2b068fc378daa952ba7f163c4a11628f55a4df523b3ef60405160405180910390a4809150509392505050565b610ff5610db9565b73ffffffffffffffffffffffffffffffffffffffff16611013610870565b73ffffffffffffffffffffffffffffffffffffffff161461107257611036610db9565b6040517f118cdaa70000000000000000000000000000000000000000000000000000000081526004016110699190611eec565b60405180910390fd5b565b6000600760009054906101000a900473ffffffffffffffffffffffffffffffffffffffff16905081600760006101000a81548173ffffffffffffffffffffffffffffffffffffffff021916908373ffffffffffffffffffffffffffffffffffffffff1602179055508173ffffffffffffffffffffffffffffffffffffffff168173ffffffffffffffffffffffffffffffffffffffff167f8be0079c531659141344cd1fd0a4f28419497f9722a3daafe3b4186f6b6457e060405160405180910390a35050565b600073ffffffffffffffffffffffffffffffffffffffff168273ffffffffffffffffffffffffffffffffffffffff16036111ab57816040517f5b08ba180000000000000000000000000000000000000000000000000000000081526004016111a29190611eec565b60405180910390fd5b80600560008573ffffffffffffffffffffffffffffffffffffffff1673ffffffffffffffffffffffffffffffffffffffff16815260200190815260200160002060008473ffffffffffffffffffffffffffffffffffffffff1673ffffffffffffffffffffffffffffffffffffffff16815260200190815260200160002060006101000a81548160ff0219169083151502179055508173ffffffffffffffffffffffffffffffffffffffff168373ffffffffffffffffffffffffffffffffffffffff167f17307eab39ab6107e8899845ad3d59bd9653f200f220920489ca2b5937696c318360405161129c9190611d7b565b60405180910390a3505050565b60008373ffffffffffffffffffffffffffffffffffffffff163b1115611453578273ffffffffffffffffffffffffffffffffffffffff1663150b7a02868685856040518563ffffffff1660e01b8152600401611308949392919061252e565b6020604051808303816000875af192505050801561134457506040513d601f19601f82011682018060405250810190611341919061258f565b60015b6113c8573d8060008114611374576040519150601f19603f3d011682016040523d82523d6000602084013e611379565b606091505b5060008151036113c057836040517f64a0ae920000000000000000000000000000000000000000000000000000000081526004016113b79190611eec565b60405180910390fd5b805181602001fd5b63150b7a0260e01b7bffffffffffffffffffffffffffffffffffffffffffffffffffffffff1916817bffffffffffffffffffffffffffffffffffffffffffffffffffffffff19161461145157836040517f64a0ae920000000000000000000000000000000000000000000000000000000081526004016114489190611eec565b60405180910390fd5b505b5050505050565b606060405180602001604052806000815250905090565b606061147c82610cf4565b50600061148761145a565b905060008151116114a757604051806020016040528060008152506114d2565b806114b1846119e5565b6040516020016114c292919061243e565b6040516020818303038152906040525b915050919050565b600073ffffffffffffffffffffffffffffffffffffffff168273ffffffffffffffffffffffffffffffffffffffff160361154c5760006040517f64a0ae920000000000000000000000000000000000000000000000000000000081526004016115439190611eec565b60405180910390fd5b600061155a83836000610dd3565b9050600073ffffffffffffffffffffffffffffffffffffffff168173ffffffffffffffffffffffffffffffffffffffff16146115ce5760006040517f73c6ac6e0000000000000000000000000000000000000000000000000000000081526004016115c59190611eec565b60405180910390fd5b505050565b806006600084815260200190815260200160002090816115f39190612768565b507ff8e1a15aba9398e019f0b49df1a4fde98ee17ae345cb5f6b5e2c27f5033e8ce7826040516116239190611fd5565b60405180910390a15050565b600061163e6000836000610dd3565b9050600073ffffffffffffffffffffffffffffffffffffffff168173ffffffffffffffffffffffffffffffffffffffff16036116b157816040517f7e2732890000000000000000000000000000000000000000000000000000000081526004016116a89190611fd5565b60405180910390fd5b5050565b60007f01ffc9a7000000000000000000000000000000000000000000000000000000007bffffffffffffffffffffffffffffffffffffffffffffffffffffffff1916827bffffffffffffffffffffffffffffffffffffffffffffffffffffffff1916149050919050565b60006002600083815260200190815260200160002060009054906101000a900473ffffffffffffffffffffffffffffffffffffffff169050919050565b80806117955750600073ffffffffffffffffffffffffffffffffffffffff168273ffffffffffffffffffffffffffffffffffffffff1614155b156118c95760006117a584610cf4565b9050600073ffffffffffffffffffffffffffffffffffffffff168373ffffffffffffffffffffffffffffffffffffffff161415801561181057508273ffffffffffffffffffffffffffffffffffffffff168173ffffffffffffffffffffffffffffffffffffffff1614155b801561182357506118218184610ada565b155b1561186557826040517fa9fbf51f00000000000000000000000000000000000000000000000000000000815260040161185c9190611eec565b60405180910390fd5b81156118c757838573ffffffffffffffffffffffffffffffffffffffff168273ffffffffffffffffffffffffffffffffffffffff167f8c5be1e5ebec7d5bd14f71427d1e84f3dd0314c0f7b2291e5b200ac8c7c3b92560405160405180910390a45b505b836004600085815260200190815260200160002060006101000a81548173ffffffffffffffffffffffffffffffffffffffff021916908373ffffffffffffffffffffffffffffffffffffffff16021790555050505050565b61192c838383611ab3565b6119e057600073ffffffffffffffffffffffffffffffffffffffff168373ffffffffffffffffffffffffffffffffffffffff16036119a157806040517f7e2732890000000000000000000000000000000000000000000000000000000081526004016119989190611fd5565b60405180910390fd5b81816040517f177e802f0000000000000000000000000000000000000000000000000000000081526004016119d792919061283a565b60405180910390fd5b505050565b6060600060016119f484611b74565b01905060008167ffffffffffffffff811115611a1357611a12612093565b5b6040519080825280601f01601f191660200182016040528015611a455781602001600182028036833780820191505090505b509050600082602001820190505b600115611aa8578080600190039150507f3031323334353637383961626364656600000000000000000000000000000000600a86061a8153600a8581611a9c57611a9b612863565b5b04945060008503611a53575b819350505050919050565b60008073ffffffffffffffffffffffffffffffffffffffff168373ffffffffffffffffffffffffffffffffffffffff1614158015611b6b57508273ffffffffffffffffffffffffffffffffffffffff168473ffffffffffffffffffffffffffffffffffffffff161480611b2c5750611b2b8484610ada565b5b80611b6a57508273ffffffffffffffffffffffffffffffffffffffff16611b5283610d7c565b73ffffffffffffffffffffffffffffffffffffffff16145b5b90509392505050565b600080600090507a184f03e93ff9f4daa797ed6e38ed64bf6a1f0100000000000000008310611bd2577a184f03e93ff9f4daa797ed6e38ed64bf6a1f0100000000000000008381611bc857611bc7612863565b5b0492506040810190505b6d04ee2d6d415b85acef81000000008310611c0f576d04ee2d6d415b85acef81000000008381611c0557611c04612863565b5b0492506020810190505b662386f26fc100008310611c3e57662386f26fc100008381611c3457611c33612863565b5b0492506010810190505b6305f5e1008310611c67576305f5e1008381611c5d57611c5c612863565b5b0492506008810190505b6127108310611c8c576127108381611c8257611c81612863565b5b0492506004810190505b60648310611caf5760648381611ca557611ca4612863565b5b0492506002810190505b600a8310611cbe576001810190505b80915050919050565b6000604051905090565b600080fd5b600080fd5b60007fffffffff0000000000000000000000000000000000000000000000000000000082169050919050565b611d1081611cdb565b8114611d1b57600080fd5b50565b600081359050611d2d81611d07565b92915050565b600060208284031215611d4957611d48611cd1565b5b6000611d5784828501611d1e565b91505092915050565b60008115159050919050565b611d7581611d60565b82525050565b6000602082019050611d906000830184611d6c565b92915050565b600081519050919050565b600082825260208201905092915050565b60005b83811015611dd0578082015181840152602081019050611db5565b60008484015250505050565b6000601f19601f8301169050919050565b6000611df882611d96565b611e028185611da1565b9350611e12818560208601611db2565b611e1b81611ddc565b840191505092915050565b60006020820190508181036000830152611e408184611ded565b905092915050565b6000819050919050565b611e5b81611e48565b8114611e6657600080fd5b50565b600081359050611e7881611e52565b92915050565b600060208284031215611e9457611e93611cd1565b5b6000611ea284828501611e69565b91505092915050565b600073ffffffffffffffffffffffffffffffffffffffff82169050919050565b6000611ed682611eab565b9050919050565b611ee681611ecb565b82525050565b6000602082019050611f016000830184611edd565b92915050565b611f1081611ecb565b8114611f1b57600080fd5b50565b600081359050611f2d81611f07565b92915050565b60008060408385031215611f4a57611f49611cd1565b5b6000611f5885828601611f1e565b9250506020611f6985828601611e69565b9150509250929050565b600080600060608486031215611f8c57611f8b611cd1565b5b6000611f9a86828701611f1e565b9350506020611fab86828701611f1e565b9250506040611fbc86828701611e69565b9150509250925092565b611fcf81611e48565b82525050565b6000602082019050611fea6000830184611fc6565b92915050565b60006020828403121561200657612005611cd1565b5b600061201484828501611f1e565b91505092915050565b61202681611d60565b811461203157600080fd5b50565b6000813590506120438161201d565b92915050565b600080604083850312156120605761205f611cd1565b5b600061206e85828601611f1e565b925050602061207f85828601612034565b9150509250929050565b600080fd5b600080fd5b7f4e487b7100000000000000000000000000000000000000000000000000000000600052604160045260246000fd5b6120cb82611ddc565b810181811067ffffffffffffffff821117156120ea576120e9612093565b5b80604052505050565b60006120fd611cc7565b905061210982826120c2565b919050565b600067ffffffffffffffff82111561212957612128612093565b5b61213282611ddc565b9050602081019050919050565b82818337600083830152505050565b600061216161215c8461210e565b6120f3565b90508281526020810184848401111561217d5761217c61208e565b5b61218884828561213f565b509392505050565b600082601f8301126121a5576121a4612089565b5b81356121b584826020860161214e565b91505092915050565b600080600080608085870312156121d8576121d7611cd1565b5b60006121e687828801611f1e565b94505060206121f787828801611f1e565b935050604061220887828801611e69565b925050606085013567ffffffffffffffff81111561222957612228611cd6565b5b61223587828801612190565b91505092959194509250565b600067ffffffffffffffff82111561225c5761225b612093565b5b61226582611ddc565b9050602081019050919050565b600061228561228084612241565b6120f3565b9050828152602081018484840111156122a1576122a061208e565b5b6122ac84828561213f565b509392505050565b600082601f8301126122c9576122c8612089565b5b81356122d9848260208601612272565b91505092915050565b6000602082840312156122f8576122f7611cd1565b5b600082013567ffffffffffffffff81111561231657612315611cd6565b5b612322848285016122b4565b91505092915050565b6000806040838503121561234257612341611cd1565b5b600061235085828601611f1e565b925050602061236185828601611f1e565b9150509250929050565b7f4e487b7100000000000000000000000000000000000000000000000000000000600052602260045260246000fd5b600060028204905060018216806123b257607f821691505b6020821081036123c5576123c461236b565b5b50919050565b60006060820190506123e06000830186611edd565b6123ed6020830185611fc6565b6123fa6040830184611edd565b949350505050565b600081905092915050565b600061241882611d96565b6124228185612402565b9350612432818560208601611db2565b80840191505092915050565b600061244a828561240d565b9150612456828461240d565b91508190509392505050565b7f4e487b7100000000000000000000000000000000000000000000000000000000600052601160045260246000fd5b600061249c82611e48565b91507fffffffffffffffffffffffffffffffffffffffffffffffffffffffffffffffff82036124ce576124cd612462565b5b600182019050919050565b600081519050919050565b600082825260208201905092915050565b6000612500826124d9565b61250a81856124e4565b935061251a818560208601611db2565b61252381611ddc565b840191505092915050565b60006080820190506125436000830187611edd565b6125506020830186611edd565b61255d6040830185611fc6565b818103606083015261256f81846124f5565b905095945050505050565b60008151905061258981611d07565b92915050565b6000602082840312156125a5576125a4611cd1565b5b60006125b38482850161257a565b91505092915050565b60008190508160005260206000209050919050565b60006020601f8301049050919050565b600082821b905092915050565b60006008830261261e7fffffffffffffffffffffffffffffffffffffffffffffffffffffffffffffffff826125e1565b61262886836125e1565b95508019841693508086168417925050509392505050565b6000819050919050565b600061266561266061265b84611e48565b612640565b611e48565b9050919050565b6000819050919050565b61267f8361264a565b61269361268b8261266c565b8484546125ee565b825550505050565b600090565b6126a861269b565b6126b3818484612676565b505050565b5b818110156126d7576126cc6000826126a0565b6001810190506126b9565b5050565b601f82111561271c576126ed816125bc565b6126f6846125d1565b81016020851015612705578190505b612719612711856125d1565b8301826126b8565b50505b505050565b600082821c905092915050565b600061273f60001984600802612721565b1980831691505092915050565b6000612758838361272e565b9150826002028217905092915050565b61277182611d96565b67ffffffffffffffff81111561278a57612789612093565b5b612794825461239a565b61279f8282856126db565b600060209050601f8311600181146127d257600084156127c0578287015190505b6127ca858261274c565b865550612832565b601f1984166127e0866125bc565b60005b82811015612808578489015182556001820191506020850194506020810190506127e3565b868310156128255784890151612821601f89168261272e565b8355505b6001600288020188555050505b505050505050565b600060408201905061284f6000830185611edd565b61285c6020830184611fc6565b9392505050565b7f4e487b7100000000000000000000000000000000000000000000000000000000600052601260045260246000fdfea2646970667358221220f2ad28e78ebc0ea301555ebaad0a87b087fc4e39780d235439cbdc5ec3e98ec464736f6c634300081b0033",
  "linkReferences": {},
  "deployedLinkReferences": {}
}